{
	"contracts/Lotery.sol": {
		"Lotery": {
			"abi": [
				{
					"inputs": [],
					"stateMutability": "nonpayable",
					"type": "constructor"
				},
				{
					"inputs": [],
					"name": "enter",
					"outputs": [],
					"stateMutability": "payable",
					"type": "function"
				},
				{
					"inputs": [],
					"name": "getBalance",
					"outputs": [
						{
							"internalType": "uint256",
							"name": "",
							"type": "uint256"
						}
					],
					"stateMutability": "view",
					"type": "function"
				},
				{
					"inputs": [],
					"name": "getParticipants",
					"outputs": [
						{
							"internalType": "address[]",
							"name": "",
							"type": "address[]"
						}
					],
					"stateMutability": "view",
					"type": "function"
				},
				{
					"inputs": [],
					"name": "getRandom",
					"outputs": [
						{
							"internalType": "uint256",
							"name": "",
							"type": "uint256"
						}
					],
					"stateMutability": "view",
					"type": "function"
				},
				{
					"inputs": [],
					"name": "owner",
					"outputs": [
						{
							"internalType": "address",
							"name": "",
							"type": "address"
						}
					],
					"stateMutability": "view",
					"type": "function"
				},
				{
					"inputs": [
						{
							"internalType": "uint256",
							"name": "",
							"type": "uint256"
						}
					],
					"name": "partisipants",
					"outputs": [
						{
							"internalType": "address",
							"name": "",
							"type": "address"
						}
					],
					"stateMutability": "view",
					"type": "function"
				},
				{
					"inputs": [],
					"name": "pickRandomWinner",
					"outputs": [
						{
							"internalType": "address",
							"name": "",
							"type": "address"
						}
					],
					"stateMutability": "nonpayable",
					"type": "function"
				}
			],
			"devdoc": {
				"kind": "dev",
				"methods": {},
				"version": 1
			},
			"evm": {
				"assembly": "    /* \"contracts/Lotery.sol\":59:1209  contract Lotery {... */\n  mstore(0x40, 0x80)\n    /* \"contracts/Lotery.sol\":143:192  constructor() {... */\n  callvalue\n  dup1\n  iszero\n  tag_1\n  jumpi\n  0x00\n  dup1\n  revert\ntag_1:\n  pop\n    /* \"contracts/Lotery.sol\":175:185  msg.sender */\n  caller\n    /* \"contracts/Lotery.sol\":167:172  owner */\n  0x00\n  dup1\n    /* \"contracts/Lotery.sol\":167:185  owner = msg.sender */\n  0x0100\n  exp\n  dup2\n  sload\n  dup2\n  0xffffffffffffffffffffffffffffffffffffffff\n  mul\n  not\n  and\n  swap1\n  dup4\n  0xffffffffffffffffffffffffffffffffffffffff\n  and\n  mul\n  or\n  swap1\n  sstore\n  pop\n    /* \"contracts/Lotery.sol\":59:1209  contract Lotery {... */\n  dataSize(sub_0)\n  dup1\n  dataOffset(sub_0)\n  0x00\n  codecopy\n  0x00\n  return\nstop\n\nsub_0: assembly {\n        /* \"contracts/Lotery.sol\":59:1209  contract Lotery {... */\n      mstore(0x40, 0x80)\n      jumpi(tag_1, lt(calldatasize, 0x04))\n      shr(0xe0, calldataload(0x00))\n      dup1\n      0x8da5cb5b\n      gt\n      tag_9\n      jumpi\n      dup1\n      0x8da5cb5b\n      eq\n      tag_5\n      jumpi\n      dup1\n      0xaacc5a17\n      eq\n      tag_6\n      jumpi\n      dup1\n      0xe97dcb62\n      eq\n      tag_7\n      jumpi\n      dup1\n      0xfcee0ab7\n      eq\n      tag_8\n      jumpi\n      jump(tag_1)\n    tag_9:\n      dup1\n      0x12065fe0\n      eq\n      tag_2\n      jumpi\n      dup1\n      0x5aa68ac0\n      eq\n      tag_3\n      jumpi\n      dup1\n      0x898da229\n      eq\n      tag_4\n      jumpi\n    tag_1:\n      0x00\n      dup1\n      revert\n        /* \"contracts/Lotery.sol\":198:291  function getBalance() public view returns(uint) {... */\n    tag_2:\n      callvalue\n      dup1\n      iszero\n      tag_10\n      jumpi\n      0x00\n      dup1\n      revert\n    tag_10:\n      pop\n      tag_11\n      tag_12\n      jump\t// in\n    tag_11:\n      mload(0x40)\n      tag_13\n      swap2\n      swap1\n      tag_14\n      jump\t// in\n    tag_13:\n      mload(0x40)\n      dup1\n      swap2\n      sub\n      swap1\n      return\n        /* \"contracts/Lotery.sol\":297:398  function getParticipants() public view returns(address[] memory) {... */\n    tag_3:\n      callvalue\n      dup1\n      iszero\n      tag_15\n      jumpi\n      0x00\n      dup1\n      revert\n    tag_15:\n      pop\n      tag_16\n      tag_17\n      jump\t// in\n    tag_16:\n      mload(0x40)\n      tag_18\n      swap2\n      swap1\n      tag_19\n      jump\t// in\n    tag_18:\n      mload(0x40)\n      dup1\n      swap2\n      sub\n      swap1\n      return\n        /* \"contracts/Lotery.sol\":686:1207  function pickRandomWinner() public returns(address){... */\n    tag_4:\n      callvalue\n      dup1\n      iszero\n      tag_20\n      jumpi\n      0x00\n      dup1\n      revert\n    tag_20:\n      pop\n      tag_21\n      tag_22\n      jump\t// in\n    tag_21:\n      mload(0x40)\n      tag_23\n      swap2\n      swap1\n      tag_24\n      jump\t// in\n    tag_23:\n      mload(0x40)\n      dup1\n      swap2\n      sub\n      swap1\n      return\n        /* \"contracts/Lotery.sol\":81:101  address public owner */\n    tag_5:\n      callvalue\n      dup1\n      iszero\n      tag_25\n      jumpi\n      0x00\n      dup1\n      revert\n    tag_25:\n      pop\n      tag_26\n      tag_27\n      jump\t// in\n    tag_26:\n      mload(0x40)\n      tag_28\n      swap2\n      swap1\n      tag_24\n      jump\t// in\n    tag_28:\n      mload(0x40)\n      dup1\n      swap2\n      sub\n      swap1\n      return\n        /* \"contracts/Lotery.sol\":529:680  function getRandom() public view returns(uint) {... */\n    tag_6:\n      callvalue\n      dup1\n      iszero\n      tag_29\n      jumpi\n      0x00\n      dup1\n      revert\n    tag_29:\n      pop\n      tag_30\n      tag_31\n      jump\t// in\n    tag_30:\n      mload(0x40)\n      tag_32\n      swap2\n      swap1\n      tag_14\n      jump\t// in\n    tag_32:\n      mload(0x40)\n      dup1\n      swap2\n      sub\n      swap1\n      return\n        /* \"contracts/Lotery.sol\":404:523  function enter() public payable {... */\n    tag_7:\n      tag_33\n      tag_34\n      jump\t// in\n    tag_33:\n      stop\n        /* \"contracts/Lotery.sol\":107:136  address[] public partisipants */\n    tag_8:\n      callvalue\n      dup1\n      iszero\n      tag_35\n      jumpi\n      0x00\n      dup1\n      revert\n    tag_35:\n      pop\n      tag_36\n      0x04\n      dup1\n      calldatasize\n      sub\n      dup2\n      add\n      swap1\n      tag_37\n      swap2\n      swap1\n      tag_38\n      jump\t// in\n    tag_37:\n      tag_39\n      jump\t// in\n    tag_36:\n      mload(0x40)\n      tag_40\n      swap2\n      swap1\n      tag_24\n      jump\t// in\n    tag_40:\n      mload(0x40)\n      dup1\n      swap2\n      sub\n      swap1\n      return\n        /* \"contracts/Lotery.sol\":198:291  function getBalance() public view returns(uint) {... */\n    tag_12:\n        /* \"contracts/Lotery.sol\":240:244  uint */\n      0x00\n        /* \"contracts/Lotery.sol\":263:284  address(this).balance */\n      selfbalance\n        /* \"contracts/Lotery.sol\":256:284  return address(this).balance */\n      swap1\n      pop\n        /* \"contracts/Lotery.sol\":198:291  function getBalance() public view returns(uint) {... */\n      swap1\n      jump\t// out\n        /* \"contracts/Lotery.sol\":297:398  function getParticipants() public view returns(address[] memory) {... */\n    tag_17:\n        /* \"contracts/Lotery.sol\":344:360  address[] memory */\n      0x60\n        /* \"contracts/Lotery.sol\":379:391  partisipants */\n      0x01\n        /* \"contracts/Lotery.sol\":372:391  return partisipants */\n      dup1\n      sload\n      dup1\n      0x20\n      mul\n      0x20\n      add\n      mload(0x40)\n      swap1\n      dup2\n      add\n      0x40\n      mstore\n      dup1\n      swap3\n      swap2\n      swap1\n      dup2\n      dup2\n      mstore\n      0x20\n      add\n      dup3\n      dup1\n      sload\n      dup1\n      iszero\n      tag_43\n      jumpi\n      0x20\n      mul\n      dup3\n      add\n      swap2\n      swap1\n      0x00\n      mstore\n      keccak256(0x00, 0x20)\n      swap1\n    tag_44:\n      dup2\n      0x00\n      swap1\n      sload\n      swap1\n      0x0100\n      exp\n      swap1\n      div\n      0xffffffffffffffffffffffffffffffffffffffff\n      and\n      0xffffffffffffffffffffffffffffffffffffffff\n      and\n      dup2\n      mstore\n      0x20\n      add\n      swap1\n      0x01\n      add\n      swap1\n      dup1\n      dup4\n      gt\n      tag_44\n      jumpi\n    tag_43:\n      pop\n      pop\n      pop\n      pop\n      pop\n      swap1\n      pop\n        /* \"contracts/Lotery.sol\":297:398  function getParticipants() public view returns(address[] memory) {... */\n      swap1\n      jump\t// out\n        /* \"contracts/Lotery.sol\":686:1207  function pickRandomWinner() public returns(address){... */\n    tag_22:\n        /* \"contracts/Lotery.sol\":729:736  address */\n      0x00\n        /* \"contracts/Lotery.sol\":769:774  owner */\n      dup1\n      0x00\n      swap1\n      sload\n      swap1\n      0x0100\n      exp\n      swap1\n      div\n      0xffffffffffffffffffffffffffffffffffffffff\n      and\n        /* \"contracts/Lotery.sol\":755:774  msg.sender == owner */\n      0xffffffffffffffffffffffffffffffffffffffff\n      and\n        /* \"contracts/Lotery.sol\":755:765  msg.sender */\n      caller\n        /* \"contracts/Lotery.sol\":755:774  msg.sender == owner */\n      0xffffffffffffffffffffffffffffffffffffffff\n      and\n      eq\n        /* \"contracts/Lotery.sol\":747:805  require(msg.sender == owner, \"only owner can pick winner\") */\n      tag_46\n      jumpi\n      mload(0x40)\n      0x08c379a000000000000000000000000000000000000000000000000000000000\n      dup2\n      mstore\n      0x04\n      add\n      tag_47\n      swap1\n      tag_48\n      jump\t// in\n    tag_47:\n      mload(0x40)\n      dup1\n      swap2\n      sub\n      swap1\n      revert\n    tag_46:\n        /* \"contracts/Lotery.sol\":817:830  uint winnerId */\n      0x00\n        /* \"contracts/Lotery.sol\":867:868  1 */\n      0x01\n        /* \"contracts/Lotery.sol\":844:856  partisipants */\n      dup1\n        /* \"contracts/Lotery.sol\":844:863  partisipants.length */\n      dup1\n      sload\n      swap1\n      pop\n        /* \"contracts/Lotery.sol\":844:868  partisipants.length == 1 */\n      sub\n        /* \"contracts/Lotery.sol\":840:985  if (partisipants.length == 1) {... */\n      tag_49\n      jumpi\n        /* \"contracts/Lotery.sol\":895:896  0 */\n      0x00\n        /* \"contracts/Lotery.sol\":884:896  winnerId = 0 */\n      swap1\n      pop\n        /* \"contracts/Lotery.sol\":840:985  if (partisipants.length == 1) {... */\n      jump(tag_50)\n    tag_49:\n        /* \"contracts/Lotery.sol\":952:964  partisipants */\n      0x01\n        /* \"contracts/Lotery.sol\":952:971  partisipants.length */\n      dup1\n      sload\n      swap1\n      pop\n        /* \"contracts/Lotery.sol\":938:949  getRandom() */\n      tag_51\n        /* \"contracts/Lotery.sol\":938:947  getRandom */\n      tag_31\n        /* \"contracts/Lotery.sol\":938:949  getRandom() */\n      jump\t// in\n    tag_51:\n        /* \"contracts/Lotery.sol\":938:971  getRandom() % partisipants.length */\n      tag_52\n      swap2\n      swap1\n      tag_53\n      jump\t// in\n    tag_52:\n        /* \"contracts/Lotery.sol\":927:971  winnerId = getRandom() % partisipants.length */\n      swap1\n      pop\n        /* \"contracts/Lotery.sol\":840:985  if (partisipants.length == 1) {... */\n    tag_50:\n        /* \"contracts/Lotery.sol\":994:1008  address winner */\n      0x00\n        /* \"contracts/Lotery.sol\":1011:1023  partisipants */\n      0x01\n        /* \"contracts/Lotery.sol\":1024:1032  winnerId */\n      dup3\n        /* \"contracts/Lotery.sol\":1011:1033  partisipants[winnerId] */\n      dup2\n      sload\n      dup2\n      lt\n      tag_54\n      jumpi\n      tag_55\n      tag_56\n      jump\t// in\n    tag_55:\n    tag_54:\n      swap1\n      0x00\n      mstore\n      keccak256(0x00, 0x20)\n      add\n      0x00\n      swap1\n      sload\n      swap1\n      0x0100\n      exp\n      swap1\n      div\n      0xffffffffffffffffffffffffffffffffffffffff\n      and\n        /* \"contracts/Lotery.sol\":994:1033  address winner = partisipants[winnerId] */\n      swap1\n      pop\n        /* \"contracts/Lotery.sol\":1051:1057  winner */\n      dup1\n        /* \"contracts/Lotery.sol\":1043:1067  payable(winner).transfer */\n      0xffffffffffffffffffffffffffffffffffffffff\n      and\n        /* \"contracts/Lotery.sol\":1043:1090  payable(winner).transfer(address(this).balance) */\n      0x08fc\n        /* \"contracts/Lotery.sol\":1068:1089  address(this).balance */\n      selfbalance\n        /* \"contracts/Lotery.sol\":1043:1090  payable(winner).transfer(address(this).balance) */\n      swap1\n      dup2\n      iszero\n      mul\n      swap1\n      mload(0x40)\n      0x00\n      mload(0x40)\n      dup1\n      dup4\n      sub\n      dup2\n      dup6\n      dup9\n      dup9\n      call\n      swap4\n      pop\n      pop\n      pop\n      pop\n      iszero\n      dup1\n      iszero\n      tag_59\n      jumpi\n      returndatasize\n      0x00\n      dup1\n      returndatacopy\n      revert(0x00, returndatasize)\n    tag_59:\n      pop\n        /* \"contracts/Lotery.sol\":1174:1175  0 */\n      0x00\n        /* \"contracts/Lotery.sol\":1160:1176  new address[](0) */\n      0xffffffffffffffff\n      dup2\n      gt\n      iszero\n      tag_60\n      jumpi\n      tag_61\n      tag_62\n      jump\t// in\n    tag_61:\n    tag_60:\n      mload(0x40)\n      swap1\n      dup1\n      dup3\n      mstore\n      dup1\n      0x20\n      mul\n      0x20\n      add\n      dup3\n      add\n      0x40\n      mstore\n      dup1\n      iszero\n      tag_63\n      jumpi\n      dup2\n      0x20\n      add\n      0x20\n      dup3\n      mul\n      dup1\n      calldatasize\n      dup4\n      calldatacopy\n      dup1\n      dup3\n      add\n      swap2\n      pop\n      pop\n      swap1\n      pop\n    tag_63:\n      pop\n        /* \"contracts/Lotery.sol\":1145:1157  partisipants */\n      0x01\n        /* \"contracts/Lotery.sol\":1145:1176  partisipants = new address[](0) */\n      swap1\n      dup1\n      mload\n      swap1\n      0x20\n      add\n      swap1\n      tag_64\n      swap3\n      swap2\n      swap1\n      tag_65\n      jump\t// in\n    tag_64:\n      pop\n        /* \"contracts/Lotery.sol\":1194:1200  winner */\n      dup1\n        /* \"contracts/Lotery.sol\":1187:1200  return winner */\n      swap3\n      pop\n      pop\n      pop\n        /* \"contracts/Lotery.sol\":686:1207  function pickRandomWinner() public returns(address){... */\n      swap1\n      jump\t// out\n        /* \"contracts/Lotery.sol\":81:101  address public owner */\n    tag_27:\n      0x00\n      dup1\n      sload\n      swap1\n      0x0100\n      exp\n      swap1\n      div\n      0xffffffffffffffffffffffffffffffffffffffff\n      and\n      dup2\n      jump\t// out\n        /* \"contracts/Lotery.sol\":529:680  function getRandom() public view returns(uint) {... */\n    tag_31:\n        /* \"contracts/Lotery.sol\":570:574  uint */\n      0x00\n        /* \"contracts/Lotery.sol\":625:640  block.timestamp */\n      timestamp\n        /* \"contracts/Lotery.sol\":642:658  block.difficulty */\n      difficulty\n        /* \"contracts/Lotery.sol\":660:670  msg.sender */\n      caller\n        /* \"contracts/Lotery.sol\":608:671  abi.encodePacked(block.timestamp, block.difficulty, msg.sender) */\n      add(0x20, mload(0x40))\n      tag_67\n      swap4\n      swap3\n      swap2\n      swap1\n      tag_68\n      jump\t// in\n    tag_67:\n      mload(0x40)\n      0x20\n      dup2\n      dup4\n      sub\n      sub\n      dup2\n      mstore\n      swap1\n      0x40\n      mstore\n        /* \"contracts/Lotery.sol\":598:672  keccak256(abi.encodePacked(block.timestamp, block.difficulty, msg.sender)) */\n      dup1\n      mload\n      swap1\n      0x20\n      add\n      keccak256\n        /* \"contracts/Lotery.sol\":593:673  uint(keccak256(abi.encodePacked(block.timestamp, block.difficulty, msg.sender))) */\n      0x00\n      shr\n        /* \"contracts/Lotery.sol\":586:673  return uint(keccak256(abi.encodePacked(block.timestamp, block.difficulty, msg.sender))) */\n      swap1\n      pop\n        /* \"contracts/Lotery.sol\":529:680  function getRandom() public view returns(uint) {... */\n      swap1\n      jump\t// out\n        /* \"contracts/Lotery.sol\":404:523  function enter() public payable {... */\n    tag_34:\n        /* \"contracts/Lotery.sol\":466:475  .01 ether */\n      0x2386f26fc10000\n        /* \"contracts/Lotery.sol\":454:463  msg.value */\n      callvalue\n        /* \"contracts/Lotery.sol\":454:475  msg.value > .01 ether */\n      gt\n        /* \"contracts/Lotery.sol\":446:476  require(msg.value > .01 ether) */\n      tag_70\n      jumpi\n      0x00\n      dup1\n      revert\n    tag_70:\n        /* \"contracts/Lotery.sol\":487:499  partisipants */\n      0x01\n        /* \"contracts/Lotery.sol\":505:515  msg.sender */\n      caller\n        /* \"contracts/Lotery.sol\":487:516  partisipants.push(msg.sender) */\n      swap1\n      dup1\n      0x01\n      dup2\n      sload\n      add\n      dup1\n      dup3\n      sstore\n      dup1\n      swap2\n      pop\n      pop\n      0x01\n      swap1\n      sub\n      swap1\n      0x00\n      mstore\n      keccak256(0x00, 0x20)\n      add\n      0x00\n      swap1\n      swap2\n      swap1\n      swap2\n      swap1\n      swap2\n      0x0100\n      exp\n      dup2\n      sload\n      dup2\n      0xffffffffffffffffffffffffffffffffffffffff\n      mul\n      not\n      and\n      swap1\n      dup4\n      0xffffffffffffffffffffffffffffffffffffffff\n      and\n      mul\n      or\n      swap1\n      sstore\n      pop\n        /* \"contracts/Lotery.sol\":404:523  function enter() public payable {... */\n      jump\t// out\n        /* \"contracts/Lotery.sol\":107:136  address[] public partisipants */\n    tag_39:\n      0x01\n      dup2\n      dup2\n      sload\n      dup2\n      lt\n      tag_72\n      jumpi\n      0x00\n      dup1\n      revert\n    tag_72:\n      swap1\n      0x00\n      mstore\n      keccak256(0x00, 0x20)\n      add\n      0x00\n      swap2\n      pop\n      sload\n      swap1\n      0x0100\n      exp\n      swap1\n      div\n      0xffffffffffffffffffffffffffffffffffffffff\n      and\n      dup2\n      jump\t// out\n    tag_65:\n      dup3\n      dup1\n      sload\n      dup3\n      dup3\n      sstore\n      swap1\n      0x00\n      mstore\n      keccak256(0x00, 0x20)\n      swap1\n      dup2\n      add\n      swap3\n      dup3\n      iszero\n      tag_74\n      jumpi\n      swap2\n      0x20\n      mul\n      dup3\n      add\n    tag_75:\n      dup3\n      dup2\n      gt\n      iszero\n      tag_76\n      jumpi\n      dup3\n      mload\n      dup3\n      exp(0x0100, 0x00)\n      dup2\n      sload\n      dup2\n      0xffffffffffffffffffffffffffffffffffffffff\n      mul\n      not\n      and\n      swap1\n      dup4\n      0xffffffffffffffffffffffffffffffffffffffff\n      and\n      mul\n      or\n      swap1\n      sstore\n      pop\n      swap2\n      0x20\n      add\n      swap2\n      swap1\n      0x01\n      add\n      swap1\n      jump(tag_75)\n    tag_76:\n    tag_74:\n      pop\n      swap1\n      pop\n      tag_77\n      swap2\n      swap1\n      tag_78\n      jump\t// in\n    tag_77:\n      pop\n      swap1\n      jump\t// out\n    tag_78:\n    tag_79:\n      dup1\n      dup3\n      gt\n      iszero\n      tag_80\n      jumpi\n      0x00\n      dup2\n      0x00\n      swap1\n      sstore\n      pop\n      0x01\n      add\n      jump(tag_79)\n    tag_80:\n      pop\n      swap1\n      jump\t// out\n        /* \"#utility.yul\":7:84   */\n    tag_81:\n        /* \"#utility.yul\":44:51   */\n      0x00\n        /* \"#utility.yul\":73:78   */\n      dup2\n        /* \"#utility.yul\":62:78   */\n      swap1\n      pop\n        /* \"#utility.yul\":7:84   */\n      swap2\n      swap1\n      pop\n      jump\t// out\n        /* \"#utility.yul\":90:208   */\n    tag_82:\n        /* \"#utility.yul\":177:201   */\n      tag_111\n        /* \"#utility.yul\":195:200   */\n      dup2\n        /* \"#utility.yul\":177:201   */\n      tag_81\n      jump\t// in\n    tag_111:\n        /* \"#utility.yul\":172:175   */\n      dup3\n        /* \"#utility.yul\":165:202   */\n      mstore\n        /* \"#utility.yul\":90:208   */\n      pop\n      pop\n      jump\t// out\n        /* \"#utility.yul\":214:436   */\n    tag_14:\n        /* \"#utility.yul\":307:311   */\n      0x00\n        /* \"#utility.yul\":345:347   */\n      0x20\n        /* \"#utility.yul\":334:343   */\n      dup3\n        /* \"#utility.yul\":330:348   */\n      add\n        /* \"#utility.yul\":322:348   */\n      swap1\n      pop\n        /* \"#utility.yul\":358:429   */\n      tag_113\n        /* \"#utility.yul\":426:427   */\n      0x00\n        /* \"#utility.yul\":415:424   */\n      dup4\n        /* \"#utility.yul\":411:428   */\n      add\n        /* \"#utility.yul\":402:408   */\n      dup5\n        /* \"#utility.yul\":358:429   */\n      tag_82\n      jump\t// in\n    tag_113:\n        /* \"#utility.yul\":214:436   */\n      swap3\n      swap2\n      pop\n      pop\n      jump\t// out\n        /* \"#utility.yul\":442:556   */\n    tag_83:\n        /* \"#utility.yul\":509:515   */\n      0x00\n        /* \"#utility.yul\":543:548   */\n      dup2\n        /* \"#utility.yul\":537:549   */\n      mload\n        /* \"#utility.yul\":527:549   */\n      swap1\n      pop\n        /* \"#utility.yul\":442:556   */\n      swap2\n      swap1\n      pop\n      jump\t// out\n        /* \"#utility.yul\":562:746   */\n    tag_84:\n        /* \"#utility.yul\":661:672   */\n      0x00\n        /* \"#utility.yul\":695:701   */\n      dup3\n        /* \"#utility.yul\":690:693   */\n      dup3\n        /* \"#utility.yul\":683:702   */\n      mstore\n        /* \"#utility.yul\":735:739   */\n      0x20\n        /* \"#utility.yul\":730:733   */\n      dup3\n        /* \"#utility.yul\":726:740   */\n      add\n        /* \"#utility.yul\":711:740   */\n      swap1\n      pop\n        /* \"#utility.yul\":562:746   */\n      swap3\n      swap2\n      pop\n      pop\n      jump\t// out\n        /* \"#utility.yul\":752:884   */\n    tag_85:\n        /* \"#utility.yul\":819:823   */\n      0x00\n        /* \"#utility.yul\":842:845   */\n      dup2\n        /* \"#utility.yul\":834:845   */\n      swap1\n      pop\n        /* \"#utility.yul\":872:876   */\n      0x20\n        /* \"#utility.yul\":867:870   */\n      dup3\n        /* \"#utility.yul\":863:877   */\n      add\n        /* \"#utility.yul\":855:877   */\n      swap1\n      pop\n        /* \"#utility.yul\":752:884   */\n      swap2\n      swap1\n      pop\n      jump\t// out\n        /* \"#utility.yul\":890:1016   */\n    tag_86:\n        /* \"#utility.yul\":927:934   */\n      0x00\n        /* \"#utility.yul\":967:1009   */\n      0xffffffffffffffffffffffffffffffffffffffff\n        /* \"#utility.yul\":960:965   */\n      dup3\n        /* \"#utility.yul\":956:1010   */\n      and\n        /* \"#utility.yul\":945:1010   */\n      swap1\n      pop\n        /* \"#utility.yul\":890:1016   */\n      swap2\n      swap1\n      pop\n      jump\t// out\n        /* \"#utility.yul\":1022:1118   */\n    tag_87:\n        /* \"#utility.yul\":1059:1066   */\n      0x00\n        /* \"#utility.yul\":1088:1112   */\n      tag_119\n        /* \"#utility.yul\":1106:1111   */\n      dup3\n        /* \"#utility.yul\":1088:1112   */\n      tag_86\n      jump\t// in\n    tag_119:\n        /* \"#utility.yul\":1077:1112   */\n      swap1\n      pop\n        /* \"#utility.yul\":1022:1118   */\n      swap2\n      swap1\n      pop\n      jump\t// out\n        /* \"#utility.yul\":1124:1232   */\n    tag_88:\n        /* \"#utility.yul\":1201:1225   */\n      tag_121\n        /* \"#utility.yul\":1219:1224   */\n      dup2\n        /* \"#utility.yul\":1201:1225   */\n      tag_87\n      jump\t// in\n    tag_121:\n        /* \"#utility.yul\":1196:1199   */\n      dup3\n        /* \"#utility.yul\":1189:1226   */\n      mstore\n        /* \"#utility.yul\":1124:1232   */\n      pop\n      pop\n      jump\t// out\n        /* \"#utility.yul\":1238:1417   */\n    tag_89:\n        /* \"#utility.yul\":1307:1317   */\n      0x00\n        /* \"#utility.yul\":1328:1374   */\n      tag_123\n        /* \"#utility.yul\":1370:1373   */\n      dup4\n        /* \"#utility.yul\":1362:1368   */\n      dup4\n        /* \"#utility.yul\":1328:1374   */\n      tag_88\n      jump\t// in\n    tag_123:\n        /* \"#utility.yul\":1406:1410   */\n      0x20\n        /* \"#utility.yul\":1401:1404   */\n      dup4\n        /* \"#utility.yul\":1397:1411   */\n      add\n        /* \"#utility.yul\":1383:1411   */\n      swap1\n      pop\n        /* \"#utility.yul\":1238:1417   */\n      swap3\n      swap2\n      pop\n      pop\n      jump\t// out\n        /* \"#utility.yul\":1423:1536   */\n    tag_90:\n        /* \"#utility.yul\":1493:1497   */\n      0x00\n        /* \"#utility.yul\":1525:1529   */\n      0x20\n        /* \"#utility.yul\":1520:1523   */\n      dup3\n        /* \"#utility.yul\":1516:1530   */\n      add\n        /* \"#utility.yul\":1508:1530   */\n      swap1\n      pop\n        /* \"#utility.yul\":1423:1536   */\n      swap2\n      swap1\n      pop\n      jump\t// out\n        /* \"#utility.yul\":1572:2304   */\n    tag_91:\n        /* \"#utility.yul\":1691:1694   */\n      0x00\n        /* \"#utility.yul\":1720:1774   */\n      tag_126\n        /* \"#utility.yul\":1768:1773   */\n      dup3\n        /* \"#utility.yul\":1720:1774   */\n      tag_83\n      jump\t// in\n    tag_126:\n        /* \"#utility.yul\":1790:1876   */\n      tag_127\n        /* \"#utility.yul\":1869:1875   */\n      dup2\n        /* \"#utility.yul\":1864:1867   */\n      dup6\n        /* \"#utility.yul\":1790:1876   */\n      tag_84\n      jump\t// in\n    tag_127:\n        /* \"#utility.yul\":1783:1876   */\n      swap4\n      pop\n        /* \"#utility.yul\":1900:1956   */\n      tag_128\n        /* \"#utility.yul\":1950:1955   */\n      dup4\n        /* \"#utility.yul\":1900:1956   */\n      tag_85\n      jump\t// in\n    tag_128:\n        /* \"#utility.yul\":1979:1986   */\n      dup1\n        /* \"#utility.yul\":2010:2011   */\n      0x00\n        /* \"#utility.yul\":1995:2279   */\n    tag_129:\n        /* \"#utility.yul\":2020:2026   */\n      dup4\n        /* \"#utility.yul\":2017:2018   */\n      dup2\n        /* \"#utility.yul\":2014:2027   */\n      lt\n        /* \"#utility.yul\":1995:2279   */\n      iszero\n      tag_131\n      jumpi\n        /* \"#utility.yul\":2096:2102   */\n      dup2\n        /* \"#utility.yul\":2090:2103   */\n      mload\n        /* \"#utility.yul\":2123:2186   */\n      tag_132\n        /* \"#utility.yul\":2182:2185   */\n      dup9\n        /* \"#utility.yul\":2167:2180   */\n      dup3\n        /* \"#utility.yul\":2123:2186   */\n      tag_89\n      jump\t// in\n    tag_132:\n        /* \"#utility.yul\":2116:2186   */\n      swap8\n      pop\n        /* \"#utility.yul\":2209:2269   */\n      tag_133\n        /* \"#utility.yul\":2262:2268   */\n      dup4\n        /* \"#utility.yul\":2209:2269   */\n      tag_90\n      jump\t// in\n    tag_133:\n        /* \"#utility.yul\":2199:2269   */\n      swap3\n      pop\n        /* \"#utility.yul\":2055:2279   */\n      pop\n        /* \"#utility.yul\":2042:2043   */\n      0x01\n        /* \"#utility.yul\":2039:2040   */\n      dup2\n        /* \"#utility.yul\":2035:2044   */\n      add\n        /* \"#utility.yul\":2030:2044   */\n      swap1\n      pop\n        /* \"#utility.yul\":1995:2279   */\n      jump(tag_129)\n    tag_131:\n        /* \"#utility.yul\":1999:2013   */\n      pop\n        /* \"#utility.yul\":2295:2298   */\n      dup6\n        /* \"#utility.yul\":2288:2298   */\n      swap4\n      pop\n        /* \"#utility.yul\":1696:2304   */\n      pop\n      pop\n      pop\n        /* \"#utility.yul\":1572:2304   */\n      swap3\n      swap2\n      pop\n      pop\n      jump\t// out\n        /* \"#utility.yul\":2310:2683   */\n    tag_19:\n        /* \"#utility.yul\":2453:2457   */\n      0x00\n        /* \"#utility.yul\":2491:2493   */\n      0x20\n        /* \"#utility.yul\":2480:2489   */\n      dup3\n        /* \"#utility.yul\":2476:2494   */\n      add\n        /* \"#utility.yul\":2468:2494   */\n      swap1\n      pop\n        /* \"#utility.yul\":2540:2549   */\n      dup2\n        /* \"#utility.yul\":2534:2538   */\n      dup2\n        /* \"#utility.yul\":2530:2550   */\n      sub\n        /* \"#utility.yul\":2526:2527   */\n      0x00\n        /* \"#utility.yul\":2515:2524   */\n      dup4\n        /* \"#utility.yul\":2511:2528   */\n      add\n        /* \"#utility.yul\":2504:2551   */\n      mstore\n        /* \"#utility.yul\":2568:2676   */\n      tag_135\n        /* \"#utility.yul\":2671:2675   */\n      dup2\n        /* \"#utility.yul\":2662:2668   */\n      dup5\n        /* \"#utility.yul\":2568:2676   */\n      tag_91\n      jump\t// in\n    tag_135:\n        /* \"#utility.yul\":2560:2676   */\n      swap1\n      pop\n        /* \"#utility.yul\":2310:2683   */\n      swap3\n      swap2\n      pop\n      pop\n      jump\t// out\n        /* \"#utility.yul\":2689:2807   */\n    tag_92:\n        /* \"#utility.yul\":2776:2800   */\n      tag_137\n        /* \"#utility.yul\":2794:2799   */\n      dup2\n        /* \"#utility.yul\":2776:2800   */\n      tag_87\n      jump\t// in\n    tag_137:\n        /* \"#utility.yul\":2771:2774   */\n      dup3\n        /* \"#utility.yul\":2764:2801   */\n      mstore\n        /* \"#utility.yul\":2689:2807   */\n      pop\n      pop\n      jump\t// out\n        /* \"#utility.yul\":2813:3035   */\n    tag_24:\n        /* \"#utility.yul\":2906:2910   */\n      0x00\n        /* \"#utility.yul\":2944:2946   */\n      0x20\n        /* \"#utility.yul\":2933:2942   */\n      dup3\n        /* \"#utility.yul\":2929:2947   */\n      add\n        /* \"#utility.yul\":2921:2947   */\n      swap1\n      pop\n        /* \"#utility.yul\":2957:3028   */\n      tag_139\n        /* \"#utility.yul\":3025:3026   */\n      0x00\n        /* \"#utility.yul\":3014:3023   */\n      dup4\n        /* \"#utility.yul\":3010:3027   */\n      add\n        /* \"#utility.yul\":3001:3007   */\n      dup5\n        /* \"#utility.yul\":2957:3028   */\n      tag_92\n      jump\t// in\n    tag_139:\n        /* \"#utility.yul\":2813:3035   */\n      swap3\n      swap2\n      pop\n      pop\n      jump\t// out\n        /* \"#utility.yul\":3122:3239   */\n    tag_94:\n        /* \"#utility.yul\":3231:3232   */\n      0x00\n        /* \"#utility.yul\":3228:3229   */\n      dup1\n        /* \"#utility.yul\":3221:3233   */\n      revert\n        /* \"#utility.yul\":3368:3490   */\n    tag_96:\n        /* \"#utility.yul\":3441:3465   */\n      tag_144\n        /* \"#utility.yul\":3459:3464   */\n      dup2\n        /* \"#utility.yul\":3441:3465   */\n      tag_81\n      jump\t// in\n    tag_144:\n        /* \"#utility.yul\":3434:3439   */\n      dup2\n        /* \"#utility.yul\":3431:3466   */\n      eq\n        /* \"#utility.yul\":3421:3484   */\n      tag_145\n      jumpi\n        /* \"#utility.yul\":3480:3481   */\n      0x00\n        /* \"#utility.yul\":3477:3478   */\n      dup1\n        /* \"#utility.yul\":3470:3482   */\n      revert\n        /* \"#utility.yul\":3421:3484   */\n    tag_145:\n        /* \"#utility.yul\":3368:3490   */\n      pop\n      jump\t// out\n        /* \"#utility.yul\":3496:3635   */\n    tag_97:\n        /* \"#utility.yul\":3542:3547   */\n      0x00\n        /* \"#utility.yul\":3580:3586   */\n      dup2\n        /* \"#utility.yul\":3567:3587   */\n      calldataload\n        /* \"#utility.yul\":3558:3587   */\n      swap1\n      pop\n        /* \"#utility.yul\":3596:3629   */\n      tag_147\n        /* \"#utility.yul\":3623:3628   */\n      dup2\n        /* \"#utility.yul\":3596:3629   */\n      tag_96\n      jump\t// in\n    tag_147:\n        /* \"#utility.yul\":3496:3635   */\n      swap3\n      swap2\n      pop\n      pop\n      jump\t// out\n        /* \"#utility.yul\":3641:3970   */\n    tag_38:\n        /* \"#utility.yul\":3700:3706   */\n      0x00\n        /* \"#utility.yul\":3749:3751   */\n      0x20\n        /* \"#utility.yul\":3737:3746   */\n      dup3\n        /* \"#utility.yul\":3728:3735   */\n      dup5\n        /* \"#utility.yul\":3724:3747   */\n      sub\n        /* \"#utility.yul\":3720:3752   */\n      slt\n        /* \"#utility.yul\":3717:3836   */\n      iszero\n      tag_149\n      jumpi\n        /* \"#utility.yul\":3755:3834   */\n      tag_150\n      tag_94\n      jump\t// in\n    tag_150:\n        /* \"#utility.yul\":3717:3836   */\n    tag_149:\n        /* \"#utility.yul\":3875:3876   */\n      0x00\n        /* \"#utility.yul\":3900:3953   */\n      tag_151\n        /* \"#utility.yul\":3945:3952   */\n      dup5\n        /* \"#utility.yul\":3936:3942   */\n      dup3\n        /* \"#utility.yul\":3925:3934   */\n      dup6\n        /* \"#utility.yul\":3921:3943   */\n      add\n        /* \"#utility.yul\":3900:3953   */\n      tag_97\n      jump\t// in\n    tag_151:\n        /* \"#utility.yul\":3890:3953   */\n      swap2\n      pop\n        /* \"#utility.yul\":3846:3963   */\n      pop\n        /* \"#utility.yul\":3641:3970   */\n      swap3\n      swap2\n      pop\n      pop\n      jump\t// out\n        /* \"#utility.yul\":3976:4145   */\n    tag_98:\n        /* \"#utility.yul\":4060:4071   */\n      0x00\n        /* \"#utility.yul\":4094:4100   */\n      dup3\n        /* \"#utility.yul\":4089:4092   */\n      dup3\n        /* \"#utility.yul\":4082:4101   */\n      mstore\n        /* \"#utility.yul\":4134:4138   */\n      0x20\n        /* \"#utility.yul\":4129:4132   */\n      dup3\n        /* \"#utility.yul\":4125:4139   */\n      add\n        /* \"#utility.yul\":4110:4139   */\n      swap1\n      pop\n        /* \"#utility.yul\":3976:4145   */\n      swap3\n      swap2\n      pop\n      pop\n      jump\t// out\n        /* \"#utility.yul\":4151:4327   */\n    tag_99:\n        /* \"#utility.yul\":4291:4319   */\n      0x6f6e6c79206f776e65722063616e207069636b2077696e6e6572000000000000\n        /* \"#utility.yul\":4287:4288   */\n      0x00\n        /* \"#utility.yul\":4279:4285   */\n      dup3\n        /* \"#utility.yul\":4275:4289   */\n      add\n        /* \"#utility.yul\":4268:4320   */\n      mstore\n        /* \"#utility.yul\":4151:4327   */\n      pop\n      jump\t// out\n        /* \"#utility.yul\":4333:4699   */\n    tag_100:\n        /* \"#utility.yul\":4475:4478   */\n      0x00\n        /* \"#utility.yul\":4496:4563   */\n      tag_155\n        /* \"#utility.yul\":4560:4562   */\n      0x1a\n        /* \"#utility.yul\":4555:4558   */\n      dup4\n        /* \"#utility.yul\":4496:4563   */\n      tag_98\n      jump\t// in\n    tag_155:\n        /* \"#utility.yul\":4489:4563   */\n      swap2\n      pop\n        /* \"#utility.yul\":4572:4665   */\n      tag_156\n        /* \"#utility.yul\":4661:4664   */\n      dup3\n        /* \"#utility.yul\":4572:4665   */\n      tag_99\n      jump\t// in\n    tag_156:\n        /* \"#utility.yul\":4690:4692   */\n      0x20\n        /* \"#utility.yul\":4685:4688   */\n      dup3\n        /* \"#utility.yul\":4681:4693   */\n      add\n        /* \"#utility.yul\":4674:4693   */\n      swap1\n      pop\n        /* \"#utility.yul\":4333:4699   */\n      swap2\n      swap1\n      pop\n      jump\t// out\n        /* \"#utility.yul\":4705:5124   */\n    tag_48:\n        /* \"#utility.yul\":4871:4875   */\n      0x00\n        /* \"#utility.yul\":4909:4911   */\n      0x20\n        /* \"#utility.yul\":4898:4907   */\n      dup3\n        /* \"#utility.yul\":4894:4912   */\n      add\n        /* \"#utility.yul\":4886:4912   */\n      swap1\n      pop\n        /* \"#utility.yul\":4958:4967   */\n      dup2\n        /* \"#utility.yul\":4952:4956   */\n      dup2\n        /* \"#utility.yul\":4948:4968   */\n      sub\n        /* \"#utility.yul\":4944:4945   */\n      0x00\n        /* \"#utility.yul\":4933:4942   */\n      dup4\n        /* \"#utility.yul\":4929:4946   */\n      add\n        /* \"#utility.yul\":4922:4969   */\n      mstore\n        /* \"#utility.yul\":4986:5117   */\n      tag_158\n        /* \"#utility.yul\":5112:5116   */\n      dup2\n        /* \"#utility.yul\":4986:5117   */\n      tag_100\n      jump\t// in\n    tag_158:\n        /* \"#utility.yul\":4978:5117   */\n      swap1\n      pop\n        /* \"#utility.yul\":4705:5124   */\n      swap2\n      swap1\n      pop\n      jump\t// out\n        /* \"#utility.yul\":5130:5310   */\n    tag_101:\n        /* \"#utility.yul\":5178:5255   */\n      0x4e487b7100000000000000000000000000000000000000000000000000000000\n        /* \"#utility.yul\":5175:5176   */\n      0x00\n        /* \"#utility.yul\":5168:5256   */\n      mstore\n        /* \"#utility.yul\":5275:5279   */\n      0x12\n        /* \"#utility.yul\":5272:5273   */\n      0x04\n        /* \"#utility.yul\":5265:5280   */\n      mstore\n        /* \"#utility.yul\":5299:5303   */\n      0x24\n        /* \"#utility.yul\":5296:5297   */\n      0x00\n        /* \"#utility.yul\":5289:5304   */\n      revert\n        /* \"#utility.yul\":5316:5492   */\n    tag_53:\n        /* \"#utility.yul\":5348:5349   */\n      0x00\n        /* \"#utility.yul\":5365:5385   */\n      tag_161\n        /* \"#utility.yul\":5383:5384   */\n      dup3\n        /* \"#utility.yul\":5365:5385   */\n      tag_81\n      jump\t// in\n    tag_161:\n        /* \"#utility.yul\":5360:5385   */\n      swap2\n      pop\n        /* \"#utility.yul\":5399:5419   */\n      tag_162\n        /* \"#utility.yul\":5417:5418   */\n      dup4\n        /* \"#utility.yul\":5399:5419   */\n      tag_81\n      jump\t// in\n    tag_162:\n        /* \"#utility.yul\":5394:5419   */\n      swap3\n      pop\n        /* \"#utility.yul\":5438:5439   */\n      dup3\n        /* \"#utility.yul\":5428:5463   */\n      tag_163\n      jumpi\n        /* \"#utility.yul\":5443:5461   */\n      tag_164\n      tag_101\n      jump\t// in\n    tag_164:\n        /* \"#utility.yul\":5428:5463   */\n    tag_163:\n        /* \"#utility.yul\":5484:5485   */\n      dup3\n        /* \"#utility.yul\":5481:5482   */\n      dup3\n        /* \"#utility.yul\":5477:5486   */\n      mod\n        /* \"#utility.yul\":5472:5486   */\n      swap1\n      pop\n        /* \"#utility.yul\":5316:5492   */\n      swap3\n      swap2\n      pop\n      pop\n      jump\t// out\n        /* \"#utility.yul\":5498:5678   */\n    tag_56:\n        /* \"#utility.yul\":5546:5623   */\n      0x4e487b7100000000000000000000000000000000000000000000000000000000\n        /* \"#utility.yul\":5543:5544   */\n      0x00\n        /* \"#utility.yul\":5536:5624   */\n      mstore\n        /* \"#utility.yul\":5643:5647   */\n      0x32\n        /* \"#utility.yul\":5640:5641   */\n      0x04\n        /* \"#utility.yul\":5633:5648   */\n      mstore\n        /* \"#utility.yul\":5667:5671   */\n      0x24\n        /* \"#utility.yul\":5664:5665   */\n      0x00\n        /* \"#utility.yul\":5657:5672   */\n      revert\n        /* \"#utility.yul\":5684:5864   */\n    tag_62:\n        /* \"#utility.yul\":5732:5809   */\n      0x4e487b7100000000000000000000000000000000000000000000000000000000\n        /* \"#utility.yul\":5729:5730   */\n      0x00\n        /* \"#utility.yul\":5722:5810   */\n      mstore\n        /* \"#utility.yul\":5829:5833   */\n      0x41\n        /* \"#utility.yul\":5826:5827   */\n      0x04\n        /* \"#utility.yul\":5819:5834   */\n      mstore\n        /* \"#utility.yul\":5853:5857   */\n      0x24\n        /* \"#utility.yul\":5850:5851   */\n      0x00\n        /* \"#utility.yul\":5843:5858   */\n      revert\n        /* \"#utility.yul\":5870:5949   */\n    tag_102:\n        /* \"#utility.yul\":5909:5916   */\n      0x00\n        /* \"#utility.yul\":5938:5943   */\n      dup2\n        /* \"#utility.yul\":5927:5943   */\n      swap1\n      pop\n        /* \"#utility.yul\":5870:5949   */\n      swap2\n      swap1\n      pop\n      jump\t// out\n        /* \"#utility.yul\":5955:6112   */\n    tag_103:\n        /* \"#utility.yul\":6060:6105   */\n      tag_169\n        /* \"#utility.yul\":6080:6104   */\n      tag_170\n        /* \"#utility.yul\":6098:6103   */\n      dup3\n        /* \"#utility.yul\":6080:6104   */\n      tag_81\n      jump\t// in\n    tag_170:\n        /* \"#utility.yul\":6060:6105   */\n      tag_102\n      jump\t// in\n    tag_169:\n        /* \"#utility.yul\":6055:6058   */\n      dup3\n        /* \"#utility.yul\":6048:6106   */\n      mstore\n        /* \"#utility.yul\":5955:6112   */\n      pop\n      pop\n      jump\t// out\n        /* \"#utility.yul\":6118:6212   */\n    tag_104:\n        /* \"#utility.yul\":6151:6159   */\n      0x00\n        /* \"#utility.yul\":6199:6204   */\n      dup2\n        /* \"#utility.yul\":6195:6197   */\n      0x60\n        /* \"#utility.yul\":6191:6205   */\n      shl\n        /* \"#utility.yul\":6170:6205   */\n      swap1\n      pop\n        /* \"#utility.yul\":6118:6212   */\n      swap2\n      swap1\n      pop\n      jump\t// out\n        /* \"#utility.yul\":6218:6312   */\n    tag_105:\n        /* \"#utility.yul\":6257:6264   */\n      0x00\n        /* \"#utility.yul\":6286:6306   */\n      tag_173\n        /* \"#utility.yul\":6300:6305   */\n      dup3\n        /* \"#utility.yul\":6286:6306   */\n      tag_104\n      jump\t// in\n    tag_173:\n        /* \"#utility.yul\":6275:6306   */\n      swap1\n      pop\n        /* \"#utility.yul\":6218:6312   */\n      swap2\n      swap1\n      pop\n      jump\t// out\n        /* \"#utility.yul\":6318:6418   */\n    tag_106:\n        /* \"#utility.yul\":6357:6364   */\n      0x00\n        /* \"#utility.yul\":6386:6412   */\n      tag_175\n        /* \"#utility.yul\":6406:6411   */\n      dup3\n        /* \"#utility.yul\":6386:6412   */\n      tag_105\n      jump\t// in\n    tag_175:\n        /* \"#utility.yul\":6375:6412   */\n      swap1\n      pop\n        /* \"#utility.yul\":6318:6418   */\n      swap2\n      swap1\n      pop\n      jump\t// out\n        /* \"#utility.yul\":6424:6581   */\n    tag_107:\n        /* \"#utility.yul\":6529:6574   */\n      tag_177\n        /* \"#utility.yul\":6549:6573   */\n      tag_178\n        /* \"#utility.yul\":6567:6572   */\n      dup3\n        /* \"#utility.yul\":6549:6573   */\n      tag_87\n      jump\t// in\n    tag_178:\n        /* \"#utility.yul\":6529:6574   */\n      tag_106\n      jump\t// in\n    tag_177:\n        /* \"#utility.yul\":6524:6527   */\n      dup3\n        /* \"#utility.yul\":6517:6575   */\n      mstore\n        /* \"#utility.yul\":6424:6581   */\n      pop\n      pop\n      jump\t// out\n        /* \"#utility.yul\":6587:7125   */\n    tag_68:\n        /* \"#utility.yul\":6755:6758   */\n      0x00\n        /* \"#utility.yul\":6770:6845   */\n      tag_180\n        /* \"#utility.yul\":6841:6844   */\n      dup3\n        /* \"#utility.yul\":6832:6838   */\n      dup7\n        /* \"#utility.yul\":6770:6845   */\n      tag_103\n      jump\t// in\n    tag_180:\n        /* \"#utility.yul\":6870:6872   */\n      0x20\n        /* \"#utility.yul\":6865:6868   */\n      dup3\n        /* \"#utility.yul\":6861:6873   */\n      add\n        /* \"#utility.yul\":6854:6873   */\n      swap2\n      pop\n        /* \"#utility.yul\":6883:6958   */\n      tag_181\n        /* \"#utility.yul\":6954:6957   */\n      dup3\n        /* \"#utility.yul\":6945:6951   */\n      dup6\n        /* \"#utility.yul\":6883:6958   */\n      tag_103\n      jump\t// in\n    tag_181:\n        /* \"#utility.yul\":6983:6985   */\n      0x20\n        /* \"#utility.yul\":6978:6981   */\n      dup3\n        /* \"#utility.yul\":6974:6986   */\n      add\n        /* \"#utility.yul\":6967:6986   */\n      swap2\n      pop\n        /* \"#utility.yul\":6996:7071   */\n      tag_182\n        /* \"#utility.yul\":7067:7070   */\n      dup3\n        /* \"#utility.yul\":7058:7064   */\n      dup5\n        /* \"#utility.yul\":6996:7071   */\n      tag_107\n      jump\t// in\n    tag_182:\n        /* \"#utility.yul\":7096:7098   */\n      0x14\n        /* \"#utility.yul\":7091:7094   */\n      dup3\n        /* \"#utility.yul\":7087:7099   */\n      add\n        /* \"#utility.yul\":7080:7099   */\n      swap2\n      pop\n        /* \"#utility.yul\":7116:7119   */\n      dup2\n        /* \"#utility.yul\":7109:7119   */\n      swap1\n      pop\n        /* \"#utility.yul\":6587:7125   */\n      swap5\n      swap4\n      pop\n      pop\n      pop\n      pop\n      jump\t// out\n\n    auxdata: 0xa2646970667358221220c15cf0e604e0f5bdc70b9cf7e0bea783e764593c723efefbb1ef407529c8f16664736f6c634300080d0033\n}\n",
				"bytecode": {
					"linkReferences": {},
					"object": "608060405234801561001057600080fd5b50336000806101000a81548173ffffffffffffffffffffffffffffffffffffffff021916908373ffffffffffffffffffffffffffffffffffffffff16021790555061097a806100606000396000f3fe6080604052600436106100705760003560e01c80638da5cb5b1161004e5780638da5cb5b146100f6578063aacc5a1714610121578063e97dcb621461014c578063fcee0ab71461015657610070565b806312065fe0146100755780635aa68ac0146100a0578063898da229146100cb575b600080fd5b34801561008157600080fd5b5061008a610193565b60405161009791906105ae565b60405180910390f35b3480156100ac57600080fd5b506100b561019b565b6040516100c291906106b9565b60405180910390f35b3480156100d757600080fd5b506100e0610229565b6040516100ed91906106ea565b60405180910390f35b34801561010257600080fd5b5061010b6103de565b60405161011891906106ea565b60405180910390f35b34801561012d57600080fd5b50610136610402565b60405161014391906105ae565b60405180910390f35b610154610437565b005b34801561016257600080fd5b5061017d60048036038101906101789190610736565b6104af565b60405161018a91906106ea565b60405180910390f35b600047905090565b6060600180548060200260200160405190810160405280929190818152602001828054801561021f57602002820191906000526020600020905b8160009054906101000a900473ffffffffffffffffffffffffffffffffffffffff1673ffffffffffffffffffffffffffffffffffffffff16815260200190600101908083116101d5575b5050505050905090565b60008060009054906101000a900473ffffffffffffffffffffffffffffffffffffffff1673ffffffffffffffffffffffffffffffffffffffff163373ffffffffffffffffffffffffffffffffffffffff16146102ba576040517f08c379a00000000000000000000000000000000000000000000000000000000081526004016102b1906107c0565b60405180910390fd5b600060018080549050036102d157600090506102ec565b6001805490506102df610402565b6102e9919061080f565b90505b60006001828154811061030257610301610840565b5b9060005260206000200160009054906101000a900473ffffffffffffffffffffffffffffffffffffffff1690508073ffffffffffffffffffffffffffffffffffffffff166108fc479081150290604051600060405180830381858888f19350505050158015610375573d6000803e3d6000fd5b50600067ffffffffffffffff8111156103915761039061086f565b5b6040519080825280602002602001820160405280156103bf5781602001602082028036833780820191505090505b50600190805190602001906103d59291906104ee565b50809250505090565b60008054906101000a900473ffffffffffffffffffffffffffffffffffffffff1681565b600042443360405160200161041993929190610907565b6040516020818303038152906040528051906020012060001c905090565b662386f26fc10000341161044a57600080fd5b6001339080600181540180825580915050600190039060005260206000200160009091909190916101000a81548173ffffffffffffffffffffffffffffffffffffffff021916908373ffffffffffffffffffffffffffffffffffffffff160217905550565b600181815481106104bf57600080fd5b906000526020600020016000915054906101000a900473ffffffffffffffffffffffffffffffffffffffff1681565b828054828255906000526020600020908101928215610567579160200282015b828111156105665782518260006101000a81548173ffffffffffffffffffffffffffffffffffffffff021916908373ffffffffffffffffffffffffffffffffffffffff1602179055509160200191906001019061050e565b5b5090506105749190610578565b5090565b5b80821115610591576000816000905550600101610579565b5090565b6000819050919050565b6105a881610595565b82525050565b60006020820190506105c3600083018461059f565b92915050565b600081519050919050565b600082825260208201905092915050565b6000819050602082019050919050565b600073ffffffffffffffffffffffffffffffffffffffff82169050919050565b6000610620826105f5565b9050919050565b61063081610615565b82525050565b60006106428383610627565b60208301905092915050565b6000602082019050919050565b6000610666826105c9565b61067081856105d4565b935061067b836105e5565b8060005b838110156106ac5781516106938882610636565b975061069e8361064e565b92505060018101905061067f565b5085935050505092915050565b600060208201905081810360008301526106d3818461065b565b905092915050565b6106e481610615565b82525050565b60006020820190506106ff60008301846106db565b92915050565b600080fd5b61071381610595565b811461071e57600080fd5b50565b6000813590506107308161070a565b92915050565b60006020828403121561074c5761074b610705565b5b600061075a84828501610721565b91505092915050565b600082825260208201905092915050565b7f6f6e6c79206f776e65722063616e207069636b2077696e6e6572000000000000600082015250565b60006107aa601a83610763565b91506107b582610774565b602082019050919050565b600060208201905081810360008301526107d98161079d565b9050919050565b7f4e487b7100000000000000000000000000000000000000000000000000000000600052601260045260246000fd5b600061081a82610595565b915061082583610595565b925082610835576108346107e0565b5b828206905092915050565b7f4e487b7100000000000000000000000000000000000000000000000000000000600052603260045260246000fd5b7f4e487b7100000000000000000000000000000000000000000000000000000000600052604160045260246000fd5b6000819050919050565b6108b96108b482610595565b61089e565b82525050565b60008160601b9050919050565b60006108d7826108bf565b9050919050565b60006108e9826108cc565b9050919050565b6109016108fc82610615565b6108de565b82525050565b600061091382866108a8565b60208201915061092382856108a8565b60208201915061093382846108f0565b60148201915081905094935050505056fea2646970667358221220c15cf0e604e0f5bdc70b9cf7e0bea783e764593c723efefbb1ef407529c8f16664736f6c634300080d0033",
					"opcodes": "PUSH1 0x80 PUSH1 0x40 MSTORE CALLVALUE DUP1 ISZERO PUSH2 0x10 JUMPI PUSH1 0x0 DUP1 REVERT JUMPDEST POP CALLER PUSH1 0x0 DUP1 PUSH2 0x100 EXP DUP2 SLOAD DUP2 PUSH20 0xFFFFFFFFFFFFFFFFFFFFFFFFFFFFFFFFFFFFFFFF MUL NOT AND SWAP1 DUP4 PUSH20 0xFFFFFFFFFFFFFFFFFFFFFFFFFFFFFFFFFFFFFFFF AND MUL OR SWAP1 SSTORE POP PUSH2 0x97A DUP1 PUSH2 0x60 PUSH1 0x0 CODECOPY PUSH1 0x0 RETURN INVALID PUSH1 0x80 PUSH1 0x40 MSTORE PUSH1 0x4 CALLDATASIZE LT PUSH2 0x70 JUMPI PUSH1 0x0 CALLDATALOAD PUSH1 0xE0 SHR DUP1 PUSH4 0x8DA5CB5B GT PUSH2 0x4E JUMPI DUP1 PUSH4 0x8DA5CB5B EQ PUSH2 0xF6 JUMPI DUP1 PUSH4 0xAACC5A17 EQ PUSH2 0x121 JUMPI DUP1 PUSH4 0xE97DCB62 EQ PUSH2 0x14C JUMPI DUP1 PUSH4 0xFCEE0AB7 EQ PUSH2 0x156 JUMPI PUSH2 0x70 JUMP JUMPDEST DUP1 PUSH4 0x12065FE0 EQ PUSH2 0x75 JUMPI DUP1 PUSH4 0x5AA68AC0 EQ PUSH2 0xA0 JUMPI DUP1 PUSH4 0x898DA229 EQ PUSH2 0xCB JUMPI JUMPDEST PUSH1 0x0 DUP1 REVERT JUMPDEST CALLVALUE DUP1 ISZERO PUSH2 0x81 JUMPI PUSH1 0x0 DUP1 REVERT JUMPDEST POP PUSH2 0x8A PUSH2 0x193 JUMP JUMPDEST PUSH1 0x40 MLOAD PUSH2 0x97 SWAP2 SWAP1 PUSH2 0x5AE JUMP JUMPDEST PUSH1 0x40 MLOAD DUP1 SWAP2 SUB SWAP1 RETURN JUMPDEST CALLVALUE DUP1 ISZERO PUSH2 0xAC JUMPI PUSH1 0x0 DUP1 REVERT JUMPDEST POP PUSH2 0xB5 PUSH2 0x19B JUMP JUMPDEST PUSH1 0x40 MLOAD PUSH2 0xC2 SWAP2 SWAP1 PUSH2 0x6B9 JUMP JUMPDEST PUSH1 0x40 MLOAD DUP1 SWAP2 SUB SWAP1 RETURN JUMPDEST CALLVALUE DUP1 ISZERO PUSH2 0xD7 JUMPI PUSH1 0x0 DUP1 REVERT JUMPDEST POP PUSH2 0xE0 PUSH2 0x229 JUMP JUMPDEST PUSH1 0x40 MLOAD PUSH2 0xED SWAP2 SWAP1 PUSH2 0x6EA JUMP JUMPDEST PUSH1 0x40 MLOAD DUP1 SWAP2 SUB SWAP1 RETURN JUMPDEST CALLVALUE DUP1 ISZERO PUSH2 0x102 JUMPI PUSH1 0x0 DUP1 REVERT JUMPDEST POP PUSH2 0x10B PUSH2 0x3DE JUMP JUMPDEST PUSH1 0x40 MLOAD PUSH2 0x118 SWAP2 SWAP1 PUSH2 0x6EA JUMP JUMPDEST PUSH1 0x40 MLOAD DUP1 SWAP2 SUB SWAP1 RETURN JUMPDEST CALLVALUE DUP1 ISZERO PUSH2 0x12D JUMPI PUSH1 0x0 DUP1 REVERT JUMPDEST POP PUSH2 0x136 PUSH2 0x402 JUMP JUMPDEST PUSH1 0x40 MLOAD PUSH2 0x143 SWAP2 SWAP1 PUSH2 0x5AE JUMP JUMPDEST PUSH1 0x40 MLOAD DUP1 SWAP2 SUB SWAP1 RETURN JUMPDEST PUSH2 0x154 PUSH2 0x437 JUMP JUMPDEST STOP JUMPDEST CALLVALUE DUP1 ISZERO PUSH2 0x162 JUMPI PUSH1 0x0 DUP1 REVERT JUMPDEST POP PUSH2 0x17D PUSH1 0x4 DUP1 CALLDATASIZE SUB DUP2 ADD SWAP1 PUSH2 0x178 SWAP2 SWAP1 PUSH2 0x736 JUMP JUMPDEST PUSH2 0x4AF JUMP JUMPDEST PUSH1 0x40 MLOAD PUSH2 0x18A SWAP2 SWAP1 PUSH2 0x6EA JUMP JUMPDEST PUSH1 0x40 MLOAD DUP1 SWAP2 SUB SWAP1 RETURN JUMPDEST PUSH1 0x0 SELFBALANCE SWAP1 POP SWAP1 JUMP JUMPDEST PUSH1 0x60 PUSH1 0x1 DUP1 SLOAD DUP1 PUSH1 0x20 MUL PUSH1 0x20 ADD PUSH1 0x40 MLOAD SWAP1 DUP2 ADD PUSH1 0x40 MSTORE DUP1 SWAP3 SWAP2 SWAP1 DUP2 DUP2 MSTORE PUSH1 0x20 ADD DUP3 DUP1 SLOAD DUP1 ISZERO PUSH2 0x21F JUMPI PUSH1 0x20 MUL DUP3 ADD SWAP2 SWAP1 PUSH1 0x0 MSTORE PUSH1 0x20 PUSH1 0x0 KECCAK256 SWAP1 JUMPDEST DUP2 PUSH1 0x0 SWAP1 SLOAD SWAP1 PUSH2 0x100 EXP SWAP1 DIV PUSH20 0xFFFFFFFFFFFFFFFFFFFFFFFFFFFFFFFFFFFFFFFF AND PUSH20 0xFFFFFFFFFFFFFFFFFFFFFFFFFFFFFFFFFFFFFFFF AND DUP2 MSTORE PUSH1 0x20 ADD SWAP1 PUSH1 0x1 ADD SWAP1 DUP1 DUP4 GT PUSH2 0x1D5 JUMPI JUMPDEST POP POP POP POP POP SWAP1 POP SWAP1 JUMP JUMPDEST PUSH1 0x0 DUP1 PUSH1 0x0 SWAP1 SLOAD SWAP1 PUSH2 0x100 EXP SWAP1 DIV PUSH20 0xFFFFFFFFFFFFFFFFFFFFFFFFFFFFFFFFFFFFFFFF AND PUSH20 0xFFFFFFFFFFFFFFFFFFFFFFFFFFFFFFFFFFFFFFFF AND CALLER PUSH20 0xFFFFFFFFFFFFFFFFFFFFFFFFFFFFFFFFFFFFFFFF AND EQ PUSH2 0x2BA JUMPI PUSH1 0x40 MLOAD PUSH32 0x8C379A000000000000000000000000000000000000000000000000000000000 DUP2 MSTORE PUSH1 0x4 ADD PUSH2 0x2B1 SWAP1 PUSH2 0x7C0 JUMP JUMPDEST PUSH1 0x40 MLOAD DUP1 SWAP2 SUB SWAP1 REVERT JUMPDEST PUSH1 0x0 PUSH1 0x1 DUP1 DUP1 SLOAD SWAP1 POP SUB PUSH2 0x2D1 JUMPI PUSH1 0x0 SWAP1 POP PUSH2 0x2EC JUMP JUMPDEST PUSH1 0x1 DUP1 SLOAD SWAP1 POP PUSH2 0x2DF PUSH2 0x402 JUMP JUMPDEST PUSH2 0x2E9 SWAP2 SWAP1 PUSH2 0x80F JUMP JUMPDEST SWAP1 POP JUMPDEST PUSH1 0x0 PUSH1 0x1 DUP3 DUP2 SLOAD DUP2 LT PUSH2 0x302 JUMPI PUSH2 0x301 PUSH2 0x840 JUMP JUMPDEST JUMPDEST SWAP1 PUSH1 0x0 MSTORE PUSH1 0x20 PUSH1 0x0 KECCAK256 ADD PUSH1 0x0 SWAP1 SLOAD SWAP1 PUSH2 0x100 EXP SWAP1 DIV PUSH20 0xFFFFFFFFFFFFFFFFFFFFFFFFFFFFFFFFFFFFFFFF AND SWAP1 POP DUP1 PUSH20 0xFFFFFFFFFFFFFFFFFFFFFFFFFFFFFFFFFFFFFFFF AND PUSH2 0x8FC SELFBALANCE SWAP1 DUP2 ISZERO MUL SWAP1 PUSH1 0x40 MLOAD PUSH1 0x0 PUSH1 0x40 MLOAD DUP1 DUP4 SUB DUP2 DUP6 DUP9 DUP9 CALL SWAP4 POP POP POP POP ISZERO DUP1 ISZERO PUSH2 0x375 JUMPI RETURNDATASIZE PUSH1 0x0 DUP1 RETURNDATACOPY RETURNDATASIZE PUSH1 0x0 REVERT JUMPDEST POP PUSH1 0x0 PUSH8 0xFFFFFFFFFFFFFFFF DUP2 GT ISZERO PUSH2 0x391 JUMPI PUSH2 0x390 PUSH2 0x86F JUMP JUMPDEST JUMPDEST PUSH1 0x40 MLOAD SWAP1 DUP1 DUP3 MSTORE DUP1 PUSH1 0x20 MUL PUSH1 0x20 ADD DUP3 ADD PUSH1 0x40 MSTORE DUP1 ISZERO PUSH2 0x3BF JUMPI DUP2 PUSH1 0x20 ADD PUSH1 0x20 DUP3 MUL DUP1 CALLDATASIZE DUP4 CALLDATACOPY DUP1 DUP3 ADD SWAP2 POP POP SWAP1 POP JUMPDEST POP PUSH1 0x1 SWAP1 DUP1 MLOAD SWAP1 PUSH1 0x20 ADD SWAP1 PUSH2 0x3D5 SWAP3 SWAP2 SWAP1 PUSH2 0x4EE JUMP JUMPDEST POP DUP1 SWAP3 POP POP POP SWAP1 JUMP JUMPDEST PUSH1 0x0 DUP1 SLOAD SWAP1 PUSH2 0x100 EXP SWAP1 DIV PUSH20 0xFFFFFFFFFFFFFFFFFFFFFFFFFFFFFFFFFFFFFFFF AND DUP2 JUMP JUMPDEST PUSH1 0x0 TIMESTAMP DIFFICULTY CALLER PUSH1 0x40 MLOAD PUSH1 0x20 ADD PUSH2 0x419 SWAP4 SWAP3 SWAP2 SWAP1 PUSH2 0x907 JUMP JUMPDEST PUSH1 0x40 MLOAD PUSH1 0x20 DUP2 DUP4 SUB SUB DUP2 MSTORE SWAP1 PUSH1 0x40 MSTORE DUP1 MLOAD SWAP1 PUSH1 0x20 ADD KECCAK256 PUSH1 0x0 SHR SWAP1 POP SWAP1 JUMP JUMPDEST PUSH7 0x2386F26FC10000 CALLVALUE GT PUSH2 0x44A JUMPI PUSH1 0x0 DUP1 REVERT JUMPDEST PUSH1 0x1 CALLER SWAP1 DUP1 PUSH1 0x1 DUP2 SLOAD ADD DUP1 DUP3 SSTORE DUP1 SWAP2 POP POP PUSH1 0x1 SWAP1 SUB SWAP1 PUSH1 0x0 MSTORE PUSH1 0x20 PUSH1 0x0 KECCAK256 ADD PUSH1 0x0 SWAP1 SWAP2 SWAP1 SWAP2 SWAP1 SWAP2 PUSH2 0x100 EXP DUP2 SLOAD DUP2 PUSH20 0xFFFFFFFFFFFFFFFFFFFFFFFFFFFFFFFFFFFFFFFF MUL NOT AND SWAP1 DUP4 PUSH20 0xFFFFFFFFFFFFFFFFFFFFFFFFFFFFFFFFFFFFFFFF AND MUL OR SWAP1 SSTORE POP JUMP JUMPDEST PUSH1 0x1 DUP2 DUP2 SLOAD DUP2 LT PUSH2 0x4BF JUMPI PUSH1 0x0 DUP1 REVERT JUMPDEST SWAP1 PUSH1 0x0 MSTORE PUSH1 0x20 PUSH1 0x0 KECCAK256 ADD PUSH1 0x0 SWAP2 POP SLOAD SWAP1 PUSH2 0x100 EXP SWAP1 DIV PUSH20 0xFFFFFFFFFFFFFFFFFFFFFFFFFFFFFFFFFFFFFFFF AND DUP2 JUMP JUMPDEST DUP3 DUP1 SLOAD DUP3 DUP3 SSTORE SWAP1 PUSH1 0x0 MSTORE PUSH1 0x20 PUSH1 0x0 KECCAK256 SWAP1 DUP2 ADD SWAP3 DUP3 ISZERO PUSH2 0x567 JUMPI SWAP2 PUSH1 0x20 MUL DUP3 ADD JUMPDEST DUP3 DUP2 GT ISZERO PUSH2 0x566 JUMPI DUP3 MLOAD DUP3 PUSH1 0x0 PUSH2 0x100 EXP DUP2 SLOAD DUP2 PUSH20 0xFFFFFFFFFFFFFFFFFFFFFFFFFFFFFFFFFFFFFFFF MUL NOT AND SWAP1 DUP4 PUSH20 0xFFFFFFFFFFFFFFFFFFFFFFFFFFFFFFFFFFFFFFFF AND MUL OR SWAP1 SSTORE POP SWAP2 PUSH1 0x20 ADD SWAP2 SWAP1 PUSH1 0x1 ADD SWAP1 PUSH2 0x50E JUMP JUMPDEST JUMPDEST POP SWAP1 POP PUSH2 0x574 SWAP2 SWAP1 PUSH2 0x578 JUMP JUMPDEST POP SWAP1 JUMP JUMPDEST JUMPDEST DUP1 DUP3 GT ISZERO PUSH2 0x591 JUMPI PUSH1 0x0 DUP2 PUSH1 0x0 SWAP1 SSTORE POP PUSH1 0x1 ADD PUSH2 0x579 JUMP JUMPDEST POP SWAP1 JUMP JUMPDEST PUSH1 0x0 DUP2 SWAP1 POP SWAP2 SWAP1 POP JUMP JUMPDEST PUSH2 0x5A8 DUP2 PUSH2 0x595 JUMP JUMPDEST DUP3 MSTORE POP POP JUMP JUMPDEST PUSH1 0x0 PUSH1 0x20 DUP3 ADD SWAP1 POP PUSH2 0x5C3 PUSH1 0x0 DUP4 ADD DUP5 PUSH2 0x59F JUMP JUMPDEST SWAP3 SWAP2 POP POP JUMP JUMPDEST PUSH1 0x0 DUP2 MLOAD SWAP1 POP SWAP2 SWAP1 POP JUMP JUMPDEST PUSH1 0x0 DUP3 DUP3 MSTORE PUSH1 0x20 DUP3 ADD SWAP1 POP SWAP3 SWAP2 POP POP JUMP JUMPDEST PUSH1 0x0 DUP2 SWAP1 POP PUSH1 0x20 DUP3 ADD SWAP1 POP SWAP2 SWAP1 POP JUMP JUMPDEST PUSH1 0x0 PUSH20 0xFFFFFFFFFFFFFFFFFFFFFFFFFFFFFFFFFFFFFFFF DUP3 AND SWAP1 POP SWAP2 SWAP1 POP JUMP JUMPDEST PUSH1 0x0 PUSH2 0x620 DUP3 PUSH2 0x5F5 JUMP JUMPDEST SWAP1 POP SWAP2 SWAP1 POP JUMP JUMPDEST PUSH2 0x630 DUP2 PUSH2 0x615 JUMP JUMPDEST DUP3 MSTORE POP POP JUMP JUMPDEST PUSH1 0x0 PUSH2 0x642 DUP4 DUP4 PUSH2 0x627 JUMP JUMPDEST PUSH1 0x20 DUP4 ADD SWAP1 POP SWAP3 SWAP2 POP POP JUMP JUMPDEST PUSH1 0x0 PUSH1 0x20 DUP3 ADD SWAP1 POP SWAP2 SWAP1 POP JUMP JUMPDEST PUSH1 0x0 PUSH2 0x666 DUP3 PUSH2 0x5C9 JUMP JUMPDEST PUSH2 0x670 DUP2 DUP6 PUSH2 0x5D4 JUMP JUMPDEST SWAP4 POP PUSH2 0x67B DUP4 PUSH2 0x5E5 JUMP JUMPDEST DUP1 PUSH1 0x0 JUMPDEST DUP4 DUP2 LT ISZERO PUSH2 0x6AC JUMPI DUP2 MLOAD PUSH2 0x693 DUP9 DUP3 PUSH2 0x636 JUMP JUMPDEST SWAP8 POP PUSH2 0x69E DUP4 PUSH2 0x64E JUMP JUMPDEST SWAP3 POP POP PUSH1 0x1 DUP2 ADD SWAP1 POP PUSH2 0x67F JUMP JUMPDEST POP DUP6 SWAP4 POP POP POP POP SWAP3 SWAP2 POP POP JUMP JUMPDEST PUSH1 0x0 PUSH1 0x20 DUP3 ADD SWAP1 POP DUP2 DUP2 SUB PUSH1 0x0 DUP4 ADD MSTORE PUSH2 0x6D3 DUP2 DUP5 PUSH2 0x65B JUMP JUMPDEST SWAP1 POP SWAP3 SWAP2 POP POP JUMP JUMPDEST PUSH2 0x6E4 DUP2 PUSH2 0x615 JUMP JUMPDEST DUP3 MSTORE POP POP JUMP JUMPDEST PUSH1 0x0 PUSH1 0x20 DUP3 ADD SWAP1 POP PUSH2 0x6FF PUSH1 0x0 DUP4 ADD DUP5 PUSH2 0x6DB JUMP JUMPDEST SWAP3 SWAP2 POP POP JUMP JUMPDEST PUSH1 0x0 DUP1 REVERT JUMPDEST PUSH2 0x713 DUP2 PUSH2 0x595 JUMP JUMPDEST DUP2 EQ PUSH2 0x71E JUMPI PUSH1 0x0 DUP1 REVERT JUMPDEST POP JUMP JUMPDEST PUSH1 0x0 DUP2 CALLDATALOAD SWAP1 POP PUSH2 0x730 DUP2 PUSH2 0x70A JUMP JUMPDEST SWAP3 SWAP2 POP POP JUMP JUMPDEST PUSH1 0x0 PUSH1 0x20 DUP3 DUP5 SUB SLT ISZERO PUSH2 0x74C JUMPI PUSH2 0x74B PUSH2 0x705 JUMP JUMPDEST JUMPDEST PUSH1 0x0 PUSH2 0x75A DUP5 DUP3 DUP6 ADD PUSH2 0x721 JUMP JUMPDEST SWAP2 POP POP SWAP3 SWAP2 POP POP JUMP JUMPDEST PUSH1 0x0 DUP3 DUP3 MSTORE PUSH1 0x20 DUP3 ADD SWAP1 POP SWAP3 SWAP2 POP POP JUMP JUMPDEST PUSH32 0x6F6E6C79206F776E65722063616E207069636B2077696E6E6572000000000000 PUSH1 0x0 DUP3 ADD MSTORE POP JUMP JUMPDEST PUSH1 0x0 PUSH2 0x7AA PUSH1 0x1A DUP4 PUSH2 0x763 JUMP JUMPDEST SWAP2 POP PUSH2 0x7B5 DUP3 PUSH2 0x774 JUMP JUMPDEST PUSH1 0x20 DUP3 ADD SWAP1 POP SWAP2 SWAP1 POP JUMP JUMPDEST PUSH1 0x0 PUSH1 0x20 DUP3 ADD SWAP1 POP DUP2 DUP2 SUB PUSH1 0x0 DUP4 ADD MSTORE PUSH2 0x7D9 DUP2 PUSH2 0x79D JUMP JUMPDEST SWAP1 POP SWAP2 SWAP1 POP JUMP JUMPDEST PUSH32 0x4E487B7100000000000000000000000000000000000000000000000000000000 PUSH1 0x0 MSTORE PUSH1 0x12 PUSH1 0x4 MSTORE PUSH1 0x24 PUSH1 0x0 REVERT JUMPDEST PUSH1 0x0 PUSH2 0x81A DUP3 PUSH2 0x595 JUMP JUMPDEST SWAP2 POP PUSH2 0x825 DUP4 PUSH2 0x595 JUMP JUMPDEST SWAP3 POP DUP3 PUSH2 0x835 JUMPI PUSH2 0x834 PUSH2 0x7E0 JUMP JUMPDEST JUMPDEST DUP3 DUP3 MOD SWAP1 POP SWAP3 SWAP2 POP POP JUMP JUMPDEST PUSH32 0x4E487B7100000000000000000000000000000000000000000000000000000000 PUSH1 0x0 MSTORE PUSH1 0x32 PUSH1 0x4 MSTORE PUSH1 0x24 PUSH1 0x0 REVERT JUMPDEST PUSH32 0x4E487B7100000000000000000000000000000000000000000000000000000000 PUSH1 0x0 MSTORE PUSH1 0x41 PUSH1 0x4 MSTORE PUSH1 0x24 PUSH1 0x0 REVERT JUMPDEST PUSH1 0x0 DUP2 SWAP1 POP SWAP2 SWAP1 POP JUMP JUMPDEST PUSH2 0x8B9 PUSH2 0x8B4 DUP3 PUSH2 0x595 JUMP JUMPDEST PUSH2 0x89E JUMP JUMPDEST DUP3 MSTORE POP POP JUMP JUMPDEST PUSH1 0x0 DUP2 PUSH1 0x60 SHL SWAP1 POP SWAP2 SWAP1 POP JUMP JUMPDEST PUSH1 0x0 PUSH2 0x8D7 DUP3 PUSH2 0x8BF JUMP JUMPDEST SWAP1 POP SWAP2 SWAP1 POP JUMP JUMPDEST PUSH1 0x0 PUSH2 0x8E9 DUP3 PUSH2 0x8CC JUMP JUMPDEST SWAP1 POP SWAP2 SWAP1 POP JUMP JUMPDEST PUSH2 0x901 PUSH2 0x8FC DUP3 PUSH2 0x615 JUMP JUMPDEST PUSH2 0x8DE JUMP JUMPDEST DUP3 MSTORE POP POP JUMP JUMPDEST PUSH1 0x0 PUSH2 0x913 DUP3 DUP7 PUSH2 0x8A8 JUMP JUMPDEST PUSH1 0x20 DUP3 ADD SWAP2 POP PUSH2 0x923 DUP3 DUP6 PUSH2 0x8A8 JUMP JUMPDEST PUSH1 0x20 DUP3 ADD SWAP2 POP PUSH2 0x933 DUP3 DUP5 PUSH2 0x8F0 JUMP JUMPDEST PUSH1 0x14 DUP3 ADD SWAP2 POP DUP2 SWAP1 POP SWAP5 SWAP4 POP POP POP POP JUMP INVALID LOG2 PUSH5 0x6970667358 0x22 SLT KECCAK256 0xC1 0x5C CREATE 0xE6 DIV 0xE0 CREATE2 0xBD 0xC7 SIGNEXTEND SWAP13 0xF7 0xE0 0xBE 0xA7 DUP4 0xE7 PUSH5 0x593C723EFE 0xFB 0xB1 0xEF BLOCKHASH PUSH22 0x29C8F16664736F6C634300080D003300000000000000 "
				},
				"gasEstimates": {
					"creation": {
						"codeDepositCost": "485200",
						"executionCost": "24784",
						"totalCost": "509984"
					},
					"external": {
						"enter()": "48764",
						"getBalance()": "340",
						"getParticipants()": "infinite",
						"getRandom()": "infinite",
						"owner()": "2511",
						"partisipants(uint256)": "5022",
						"pickRandomWinner()": "infinite"
					}
				},
				"methodIdentifiers": {
					"enter()": "e97dcb62",
					"getBalance()": "12065fe0",
					"getParticipants()": "5aa68ac0",
					"getRandom()": "aacc5a17",
					"owner()": "8da5cb5b",
					"partisipants(uint256)": "fcee0ab7",
					"pickRandomWinner()": "898da229"
				}
			},
			"storageLayout": {
				"storage": [
					{
						"astId": 3,
						"contract": "contracts/Lotery.sol:Lotery",
						"label": "owner",
						"offset": 0,
						"slot": "0",
						"type": "t_address"
					},
					{
						"astId": 6,
						"contract": "contracts/Lotery.sol:Lotery",
						"label": "partisipants",
						"offset": 0,
						"slot": "1",
						"type": "t_array(t_address)dyn_storage"
					}
				],
				"types": {
					"t_address": {
						"encoding": "inplace",
						"label": "address",
						"numberOfBytes": "20"
					},
					"t_array(t_address)dyn_storage": {
						"base": "t_address",
						"encoding": "dynamic_array",
						"label": "address[]",
						"numberOfBytes": "32"
					}
				}
			},
			"userdoc": {
				"kind": "user",
				"methods": {},
				"version": 1
			}
		}
	}
}